{
  "_format": "hh-sol-artifact-1",
  "contractName": "Blog",
  "sourceName": "contracts/Blog.sol",
  "abi": [
    {
      "anonymous": false,
      "inputs": [
        {
          "indexed": false,
          "internalType": "uint256",
          "name": "postId",
          "type": "uint256"
        },
        {
          "indexed": false,
          "internalType": "string",
          "name": "title",
          "type": "string"
        },
        {
          "indexed": false,
          "internalType": "string",
          "name": "ipfsHash",
          "type": "string"
        },
        {
          "indexed": false,
          "internalType": "address",
          "name": "author",
          "type": "address"
        },
        {
          "indexed": false,
          "internalType": "uint256",
          "name": "timestamp",
          "type": "uint256"
        }
      ],
      "name": "PostCreated",
      "type": "event"
    },
    {
      "inputs": [
        {
          "internalType": "string",
          "name": "_title",
          "type": "string"
        },
        {
          "internalType": "string",
          "name": "_ipfsHash",
          "type": "string"
        }
      ],
      "name": "createPost",
      "outputs": [],
      "stateMutability": "nonpayable",
      "type": "function"
    },
    {
      "inputs": [],
      "name": "getAllPosts",
      "outputs": [
        {
          "components": [
            {
              "internalType": "string",
              "name": "title",
              "type": "string"
            },
            {
              "internalType": "string",
              "name": "ipfsHash",
              "type": "string"
            },
            {
              "internalType": "address",
              "name": "author",
              "type": "address"
            },
            {
              "internalType": "uint256",
              "name": "timestamp",
              "type": "uint256"
            }
          ],
          "internalType": "struct Blog.Post[]",
          "name": "",
          "type": "tuple[]"
        }
      ],
      "stateMutability": "view",
      "type": "function"
    },
    {
      "inputs": [],
      "name": "getPostCount",
      "outputs": [
        {
          "internalType": "uint256",
          "name": "",
          "type": "uint256"
        }
      ],
      "stateMutability": "view",
      "type": "function"
    },
    {
      "inputs": [
        {
          "internalType": "uint256",
          "name": "",
          "type": "uint256"
        }
      ],
      "name": "posts",
      "outputs": [
        {
          "internalType": "string",
          "name": "title",
          "type": "string"
        },
        {
          "internalType": "string",
          "name": "ipfsHash",
          "type": "string"
        },
        {
          "internalType": "address",
          "name": "author",
          "type": "address"
        },
        {
          "internalType": "uint256",
          "name": "timestamp",
          "type": "uint256"
        }
      ],
      "stateMutability": "view",
      "type": "function"
    }
  ],
  "bytecode": "0x608060405234801561001057600080fd5b50610e06806100206000396000f3fe608060405234801561001057600080fd5b506004361061004c5760003560e01c80630b1e7f83146100515780633056110014610084578063392338f5146100a2578063bcc95407146100be575b600080fd5b61006b600480360381019061006691906105b3565b6100dc565b60405161007b94939291906106c0565b60405180910390f35b61008c61024c565b60405161009991906108a7565b60405180910390f35b6100bc60048036038101906100b791906109fe565b61042f565b005b6100c661055d565b6040516100d39190610a76565b60405180910390f35b600081815481106100ec57600080fd5b906000526020600020906004020160009150905080600001805461010f90610ac0565b80601f016020809104026020016040519081016040528092919081815260200182805461013b90610ac0565b80156101885780601f1061015d57610100808354040283529160200191610188565b820191906000526020600020905b81548152906001019060200180831161016b57829003601f168201915b50505050509080600101805461019d90610ac0565b80601f01602080910402602001604051908101604052809291908181526020018280546101c990610ac0565b80156102165780601f106101eb57610100808354040283529160200191610216565b820191906000526020600020905b8154815290600101906020018083116101f957829003601f168201915b5050505050908060020160009054906101000a900473ffffffffffffffffffffffffffffffffffffffff16908060030154905084565b60606000805480602002602001604051908101604052809291908181526020016000905b8282101561042657838290600052602060002090600402016040518060800160405290816000820180546102a390610ac0565b80601f01602080910402602001604051908101604052809291908181526020018280546102cf90610ac0565b801561031c5780601f106102f15761010080835404028352916020019161031c565b820191906000526020600020905b8154815290600101906020018083116102ff57829003601f168201915b5050505050815260200160018201805461033590610ac0565b80601f016020809104026020016040519081016040528092919081815260200182805461036190610ac0565b80156103ae5780601f10610383576101008083540402835291602001916103ae565b820191906000526020600020905b81548152906001019060200180831161039157829003601f168201915b505050505081526020016002820160009054906101000a900473ffffffffffffffffffffffffffffffffffffffff1673ffffffffffffffffffffffffffffffffffffffff1673ffffffffffffffffffffffffffffffffffffffff16815260200160038201548152505081526020019060010190610270565b50505050905090565b600080805490509050600060405180608001604052808581526020018481526020013373ffffffffffffffffffffffffffffffffffffffff16815260200142815250908060018154018082558091505060019003906000526020600020906004020160009091909190915060008201518160000190816104af9190610c9d565b5060208201518160010190816104c59190610c9d565b5060408201518160020160006101000a81548173ffffffffffffffffffffffffffffffffffffffff021916908373ffffffffffffffffffffffffffffffffffffffff1602179055506060820151816003015550507fdc60008b3a62cf83a48833c54f226c5c132ebf1cf78e1170a9660b8e8f772d248184843342604051610550959493929190610d6f565b60405180910390a1505050565b60008080549050905090565b6000604051905090565b600080fd5b600080fd5b6000819050919050565b6105908161057d565b811461059b57600080fd5b50565b6000813590506105ad81610587565b92915050565b6000602082840312156105c9576105c8610573565b5b60006105d78482850161059e565b91505092915050565b600081519050919050565b600082825260208201905092915050565b60005b8381101561061a5780820151818401526020810190506105ff565b60008484015250505050565b6000601f19601f8301169050919050565b6000610642826105e0565b61064c81856105eb565b935061065c8185602086016105fc565b61066581610626565b840191505092915050565b600073ffffffffffffffffffffffffffffffffffffffff82169050919050565b600061069b82610670565b9050919050565b6106ab81610690565b82525050565b6106ba8161057d565b82525050565b600060808201905081810360008301526106da8187610637565b905081810360208301526106ee8186610637565b90506106fd60408301856106a2565b61070a60608301846106b1565b95945050505050565b600081519050919050565b600082825260208201905092915050565b6000819050602082019050919050565b600082825260208201905092915050565b600061075b826105e0565b610765818561073f565b93506107758185602086016105fc565b61077e81610626565b840191505092915050565b61079281610690565b82525050565b6107a18161057d565b82525050565b600060808301600083015184820360008601526107c48282610750565b915050602083015184820360208601526107de8282610750565b91505060408301516107f36040860182610789565b5060608301516108066060860182610798565b508091505092915050565b600061081d83836107a7565b905092915050565b6000602082019050919050565b600061083d82610713565b610847818561071e565b9350836020820285016108598561072f565b8060005b8581101561089557848403895281516108768582610811565b945061088183610825565b925060208a0199505060018101905061085d565b50829750879550505050505092915050565b600060208201905081810360008301526108c18184610832565b905092915050565b600080fd5b600080fd5b7f4e487b7100000000000000000000000000000000000000000000000000000000600052604160045260246000fd5b61090b82610626565b810181811067ffffffffffffffff8211171561092a576109296108d3565b5b80604052505050565b600061093d610569565b90506109498282610902565b919050565b600067ffffffffffffffff821115610969576109686108d3565b5b61097282610626565b9050602081019050919050565b82818337600083830152505050565b60006109a161099c8461094e565b610933565b9050828152602081018484840111156109bd576109bc6108ce565b5b6109c884828561097f565b509392505050565b600082601f8301126109e5576109e46108c9565b5b81356109f584826020860161098e565b91505092915050565b60008060408385031215610a1557610a14610573565b5b600083013567ffffffffffffffff811115610a3357610a32610578565b5b610a3f858286016109d0565b925050602083013567ffffffffffffffff811115610a6057610a5f610578565b5b610a6c858286016109d0565b9150509250929050565b6000602082019050610a8b60008301846106b1565b92915050565b7f4e487b7100000000000000000000000000000000000000000000000000000000600052602260045260246000fd5b60006002820490506001821680610ad857607f821691505b602082108103610aeb57610aea610a91565b5b50919050565b60008190508160005260206000209050919050565b60006020601f8301049050919050565b600082821b905092915050565b600060088302610b537fffffffffffffffffffffffffffffffffffffffffffffffffffffffffffffffff82610b16565b610b5d8683610b16565b95508019841693508086168417925050509392505050565b6000819050919050565b6000610b9a610b95610b908461057d565b610b75565b61057d565b9050919050565b6000819050919050565b610bb483610b7f565b610bc8610bc082610ba1565b848454610b23565b825550505050565b600090565b610bdd610bd0565b610be8818484610bab565b505050565b5b81811015610c0c57610c01600082610bd5565b600181019050610bee565b5050565b601f821115610c5157610c2281610af1565b610c2b84610b06565b81016020851015610c3a578190505b610c4e610c4685610b06565b830182610bed565b50505b505050565b600082821c905092915050565b6000610c7460001984600802610c56565b1980831691505092915050565b6000610c8d8383610c63565b9150826002028217905092915050565b610ca6826105e0565b67ffffffffffffffff811115610cbf57610cbe6108d3565b5b610cc98254610ac0565b610cd4828285610c10565b600060209050601f831160018114610d075760008415610cf5578287015190505b610cff8582610c81565b865550610d67565b601f198416610d1586610af1565b60005b82811015610d3d57848901518255600182019150602085019450602081019050610d18565b86831015610d5a5784890151610d56601f891682610c63565b8355505b6001600288020188555050505b505050505050565b600060a082019050610d8460008301886106b1565b8181036020830152610d968187610637565b90508181036040830152610daa8186610637565b9050610db960608301856106a2565b610dc660808301846106b1565b969550505050505056fea26469706673582212204cacaff2250053bdc84578a0e3f2cef01ea660d7988893874d9ac562821a8ffa64736f6c63430008180033",
  "linkReferences": {},
  "deployedLinkReferences": {}
}